{
	"data": {
		"bytecode": {
			"linkReferences": {},
			"object": "6080604052348015600e575f80fd5b506109018061001c5f395ff3fe608060405234801561000f575f80fd5b506004361061003f575f3560e01c806305a1b4a91461004357806308b368701461007557806383c3ddc81461007f575b5f80fd5b61005d60048036038101906100589190610347565b61009b565b60405161006c93929190610413565b60405180910390f35b61007d610177565b005b6100996004803603810190610094919061057b565b6101b6565b005b5f602052815f5260405f2081600581106100b3575f80fd5b600302015f9150915050805f015f9054906101000a900473ffffffffffffffffffffffffffffffffffffffff16908060010180546100f090610602565b80601f016020809104026020016040519081016040528092919081815260200182805461011c90610602565b80156101675780601f1061013e57610100808354040283529160200191610167565b820191905f5260205f20905b81548152906001019060200180831161014a57829003601f168201915b5050505050908060020154905083565b5f6040518060400160405280600a81526020017f68656c6f20776f726c6400000000000000000000000000000000000000000000815250905080515050565b5f60405180606001604052803373ffffffffffffffffffffffffffffffffffffffff168152602001848152602001428152509050805f803373ffffffffffffffffffffffffffffffffffffffff1673ffffffffffffffffffffffffffffffffffffffff1681526020019081526020015f20836005811061023957610238610632565b5b600302015f820151815f015f6101000a81548173ffffffffffffffffffffffffffffffffffffffff021916908373ffffffffffffffffffffffffffffffffffffffff160217905550602082015181600101908161029691906107fc565b5060408201518160020155905050505050565b5f604051905090565b5f80fd5b5f80fd5b5f73ffffffffffffffffffffffffffffffffffffffff82169050919050565b5f6102e3826102ba565b9050919050565b6102f3816102d9565b81146102fd575f80fd5b50565b5f8135905061030e816102ea565b92915050565b5f819050919050565b61032681610314565b8114610330575f80fd5b50565b5f813590506103418161031d565b92915050565b5f806040838503121561035d5761035c6102b2565b5b5f61036a85828601610300565b925050602061037b85828601610333565b9150509250929050565b61038e816102d9565b82525050565b5f81519050919050565b5f82825260208201905092915050565b8281835e5f83830152505050565b5f601f19601f8301169050919050565b5f6103d682610394565b6103e0818561039e565b93506103f08185602086016103ae565b6103f9816103bc565b840191505092915050565b61040d81610314565b82525050565b5f6060820190506104265f830186610385565b818103602083015261043881856103cc565b90506104476040830184610404565b949350505050565b5f80fd5b5f80fd5b7f4e487b71000000000000000000000000000000000000000000000000000000005f52604160045260245ffd5b61048d826103bc565b810181811067ffffffffffffffff821117156104ac576104ab610457565b5b80604052505050565b5f6104be6102a9565b90506104ca8282610484565b919050565b5f67ffffffffffffffff8211156104e9576104e8610457565b5b6104f2826103bc565b9050602081019050919050565b828183375f83830152505050565b5f61051f61051a846104cf565b6104b5565b90508281526020810184848401111561053b5761053a610453565b5b6105468482856104ff565b509392505050565b5f82601f8301126105625761056161044f565b5b813561057284826020860161050d565b91505092915050565b5f8060408385031215610591576105906102b2565b5b5f83013567ffffffffffffffff8111156105ae576105ad6102b6565b5b6105ba8582860161054e565b92505060206105cb85828601610333565b9150509250929050565b7f4e487b71000000000000000000000000000000000000000000000000000000005f52602260045260245ffd5b5f600282049050600182168061061957607f821691505b60208210810361062c5761062b6105d5565b5b50919050565b7f4e487b71000000000000000000000000000000000000000000000000000000005f52603260045260245ffd5b5f819050815f5260205f209050919050565b5f6020601f8301049050919050565b5f82821b905092915050565b5f600883026106bb7fffffffffffffffffffffffffffffffffffffffffffffffffffffffffffffffff82610680565b6106c58683610680565b95508019841693508086168417925050509392505050565b5f819050919050565b5f6107006106fb6106f684610314565b6106dd565b610314565b9050919050565b5f819050919050565b610719836106e6565b61072d61072582610707565b84845461068c565b825550505050565b5f90565b610741610735565b61074c818484610710565b505050565b5b8181101561076f576107645f82610739565b600181019050610752565b5050565b601f8211156107b4576107858161065f565b61078e84610671565b8101602085101561079d578190505b6107b16107a985610671565b830182610751565b50505b505050565b5f82821c905092915050565b5f6107d45f19846008026107b9565b1980831691505092915050565b5f6107ec83836107c5565b9150826002028217905092915050565b61080582610394565b67ffffffffffffffff81111561081e5761081d610457565b5b6108288254610602565b610833828285610773565b5f60209050601f831160018114610864575f8415610852578287015190505b61085c85826107e1565b8655506108c3565b601f1984166108728661065f565b5f5b8281101561089957848901518255600182019150602085019450602081019050610874565b868310156108b657848901516108b2601f8916826107c5565b8355505b6001600288020188555050505b50505050505056fea26469706673582212209588a78a5365d1e316559909cb62ffd8aed61476c3cd3438c1d713c77291a91f64736f6c634300081a0033",
			"opcodes": "PUSH1 0x80 PUSH1 0x40 MSTORE CALLVALUE DUP1 ISZERO PUSH1 0xE JUMPI PUSH0 DUP1 REVERT JUMPDEST POP PUSH2 0x901 DUP1 PUSH2 0x1C PUSH0 CODECOPY PUSH0 RETURN INVALID PUSH1 0x80 PUSH1 0x40 MSTORE CALLVALUE DUP1 ISZERO PUSH2 0xF JUMPI PUSH0 DUP1 REVERT JUMPDEST POP PUSH1 0x4 CALLDATASIZE LT PUSH2 0x3F JUMPI PUSH0 CALLDATALOAD PUSH1 0xE0 SHR DUP1 PUSH4 0x5A1B4A9 EQ PUSH2 0x43 JUMPI DUP1 PUSH4 0x8B36870 EQ PUSH2 0x75 JUMPI DUP1 PUSH4 0x83C3DDC8 EQ PUSH2 0x7F JUMPI JUMPDEST PUSH0 DUP1 REVERT JUMPDEST PUSH2 0x5D PUSH1 0x4 DUP1 CALLDATASIZE SUB DUP2 ADD SWAP1 PUSH2 0x58 SWAP2 SWAP1 PUSH2 0x347 JUMP JUMPDEST PUSH2 0x9B JUMP JUMPDEST PUSH1 0x40 MLOAD PUSH2 0x6C SWAP4 SWAP3 SWAP2 SWAP1 PUSH2 0x413 JUMP JUMPDEST PUSH1 0x40 MLOAD DUP1 SWAP2 SUB SWAP1 RETURN JUMPDEST PUSH2 0x7D PUSH2 0x177 JUMP JUMPDEST STOP JUMPDEST PUSH2 0x99 PUSH1 0x4 DUP1 CALLDATASIZE SUB DUP2 ADD SWAP1 PUSH2 0x94 SWAP2 SWAP1 PUSH2 0x57B JUMP JUMPDEST PUSH2 0x1B6 JUMP JUMPDEST STOP JUMPDEST PUSH0 PUSH1 0x20 MSTORE DUP2 PUSH0 MSTORE PUSH1 0x40 PUSH0 KECCAK256 DUP2 PUSH1 0x5 DUP2 LT PUSH2 0xB3 JUMPI PUSH0 DUP1 REVERT JUMPDEST PUSH1 0x3 MUL ADD PUSH0 SWAP2 POP SWAP2 POP POP DUP1 PUSH0 ADD PUSH0 SWAP1 SLOAD SWAP1 PUSH2 0x100 EXP SWAP1 DIV PUSH20 0xFFFFFFFFFFFFFFFFFFFFFFFFFFFFFFFFFFFFFFFF AND SWAP1 DUP1 PUSH1 0x1 ADD DUP1 SLOAD PUSH2 0xF0 SWAP1 PUSH2 0x602 JUMP JUMPDEST DUP1 PUSH1 0x1F ADD PUSH1 0x20 DUP1 SWAP2 DIV MUL PUSH1 0x20 ADD PUSH1 0x40 MLOAD SWAP1 DUP2 ADD PUSH1 0x40 MSTORE DUP1 SWAP3 SWAP2 SWAP1 DUP2 DUP2 MSTORE PUSH1 0x20 ADD DUP3 DUP1 SLOAD PUSH2 0x11C SWAP1 PUSH2 0x602 JUMP JUMPDEST DUP1 ISZERO PUSH2 0x167 JUMPI DUP1 PUSH1 0x1F LT PUSH2 0x13E JUMPI PUSH2 0x100 DUP1 DUP4 SLOAD DIV MUL DUP4 MSTORE SWAP2 PUSH1 0x20 ADD SWAP2 PUSH2 0x167 JUMP JUMPDEST DUP3 ADD SWAP2 SWAP1 PUSH0 MSTORE PUSH1 0x20 PUSH0 KECCAK256 SWAP1 JUMPDEST DUP2 SLOAD DUP2 MSTORE SWAP1 PUSH1 0x1 ADD SWAP1 PUSH1 0x20 ADD DUP1 DUP4 GT PUSH2 0x14A JUMPI DUP3 SWAP1 SUB PUSH1 0x1F AND DUP3 ADD SWAP2 JUMPDEST POP POP POP POP POP SWAP1 DUP1 PUSH1 0x2 ADD SLOAD SWAP1 POP DUP4 JUMP JUMPDEST PUSH0 PUSH1 0x40 MLOAD DUP1 PUSH1 0x40 ADD PUSH1 0x40 MSTORE DUP1 PUSH1 0xA DUP2 MSTORE PUSH1 0x20 ADD PUSH32 0x68656C6F20776F726C6400000000000000000000000000000000000000000000 DUP2 MSTORE POP SWAP1 POP DUP1 MLOAD POP POP JUMP JUMPDEST PUSH0 PUSH1 0x40 MLOAD DUP1 PUSH1 0x60 ADD PUSH1 0x40 MSTORE DUP1 CALLER PUSH20 0xFFFFFFFFFFFFFFFFFFFFFFFFFFFFFFFFFFFFFFFF AND DUP2 MSTORE PUSH1 0x20 ADD DUP5 DUP2 MSTORE PUSH1 0x20 ADD TIMESTAMP DUP2 MSTORE POP SWAP1 POP DUP1 PUSH0 DUP1 CALLER PUSH20 0xFFFFFFFFFFFFFFFFFFFFFFFFFFFFFFFFFFFFFFFF AND PUSH20 0xFFFFFFFFFFFFFFFFFFFFFFFFFFFFFFFFFFFFFFFF AND DUP2 MSTORE PUSH1 0x20 ADD SWAP1 DUP2 MSTORE PUSH1 0x20 ADD PUSH0 KECCAK256 DUP4 PUSH1 0x5 DUP2 LT PUSH2 0x239 JUMPI PUSH2 0x238 PUSH2 0x632 JUMP JUMPDEST JUMPDEST PUSH1 0x3 MUL ADD PUSH0 DUP3 ADD MLOAD DUP2 PUSH0 ADD PUSH0 PUSH2 0x100 EXP DUP2 SLOAD DUP2 PUSH20 0xFFFFFFFFFFFFFFFFFFFFFFFFFFFFFFFFFFFFFFFF MUL NOT AND SWAP1 DUP4 PUSH20 0xFFFFFFFFFFFFFFFFFFFFFFFFFFFFFFFFFFFFFFFF AND MUL OR SWAP1 SSTORE POP PUSH1 0x20 DUP3 ADD MLOAD DUP2 PUSH1 0x1 ADD SWAP1 DUP2 PUSH2 0x296 SWAP2 SWAP1 PUSH2 0x7FC JUMP JUMPDEST POP PUSH1 0x40 DUP3 ADD MLOAD DUP2 PUSH1 0x2 ADD SSTORE SWAP1 POP POP POP POP POP JUMP JUMPDEST PUSH0 PUSH1 0x40 MLOAD SWAP1 POP SWAP1 JUMP JUMPDEST PUSH0 DUP1 REVERT JUMPDEST PUSH0 DUP1 REVERT JUMPDEST PUSH0 PUSH20 0xFFFFFFFFFFFFFFFFFFFFFFFFFFFFFFFFFFFFFFFF DUP3 AND SWAP1 POP SWAP2 SWAP1 POP JUMP JUMPDEST PUSH0 PUSH2 0x2E3 DUP3 PUSH2 0x2BA JUMP JUMPDEST SWAP1 POP SWAP2 SWAP1 POP JUMP JUMPDEST PUSH2 0x2F3 DUP2 PUSH2 0x2D9 JUMP JUMPDEST DUP2 EQ PUSH2 0x2FD JUMPI PUSH0 DUP1 REVERT JUMPDEST POP JUMP JUMPDEST PUSH0 DUP2 CALLDATALOAD SWAP1 POP PUSH2 0x30E DUP2 PUSH2 0x2EA JUMP JUMPDEST SWAP3 SWAP2 POP POP JUMP JUMPDEST PUSH0 DUP2 SWAP1 POP SWAP2 SWAP1 POP JUMP JUMPDEST PUSH2 0x326 DUP2 PUSH2 0x314 JUMP JUMPDEST DUP2 EQ PUSH2 0x330 JUMPI PUSH0 DUP1 REVERT JUMPDEST POP JUMP JUMPDEST PUSH0 DUP2 CALLDATALOAD SWAP1 POP PUSH2 0x341 DUP2 PUSH2 0x31D JUMP JUMPDEST SWAP3 SWAP2 POP POP JUMP JUMPDEST PUSH0 DUP1 PUSH1 0x40 DUP4 DUP6 SUB SLT ISZERO PUSH2 0x35D JUMPI PUSH2 0x35C PUSH2 0x2B2 JUMP JUMPDEST JUMPDEST PUSH0 PUSH2 0x36A DUP6 DUP3 DUP7 ADD PUSH2 0x300 JUMP JUMPDEST SWAP3 POP POP PUSH1 0x20 PUSH2 0x37B DUP6 DUP3 DUP7 ADD PUSH2 0x333 JUMP JUMPDEST SWAP2 POP POP SWAP3 POP SWAP3 SWAP1 POP JUMP JUMPDEST PUSH2 0x38E DUP2 PUSH2 0x2D9 JUMP JUMPDEST DUP3 MSTORE POP POP JUMP JUMPDEST PUSH0 DUP2 MLOAD SWAP1 POP SWAP2 SWAP1 POP JUMP JUMPDEST PUSH0 DUP3 DUP3 MSTORE PUSH1 0x20 DUP3 ADD SWAP1 POP SWAP3 SWAP2 POP POP JUMP JUMPDEST DUP3 DUP2 DUP4 MCOPY PUSH0 DUP4 DUP4 ADD MSTORE POP POP POP JUMP JUMPDEST PUSH0 PUSH1 0x1F NOT PUSH1 0x1F DUP4 ADD AND SWAP1 POP SWAP2 SWAP1 POP JUMP JUMPDEST PUSH0 PUSH2 0x3D6 DUP3 PUSH2 0x394 JUMP JUMPDEST PUSH2 0x3E0 DUP2 DUP6 PUSH2 0x39E JUMP JUMPDEST SWAP4 POP PUSH2 0x3F0 DUP2 DUP6 PUSH1 0x20 DUP7 ADD PUSH2 0x3AE JUMP JUMPDEST PUSH2 0x3F9 DUP2 PUSH2 0x3BC JUMP JUMPDEST DUP5 ADD SWAP2 POP POP SWAP3 SWAP2 POP POP JUMP JUMPDEST PUSH2 0x40D DUP2 PUSH2 0x314 JUMP JUMPDEST DUP3 MSTORE POP POP JUMP JUMPDEST PUSH0 PUSH1 0x60 DUP3 ADD SWAP1 POP PUSH2 0x426 PUSH0 DUP4 ADD DUP7 PUSH2 0x385 JUMP JUMPDEST DUP2 DUP2 SUB PUSH1 0x20 DUP4 ADD MSTORE PUSH2 0x438 DUP2 DUP6 PUSH2 0x3CC JUMP JUMPDEST SWAP1 POP PUSH2 0x447 PUSH1 0x40 DUP4 ADD DUP5 PUSH2 0x404 JUMP JUMPDEST SWAP5 SWAP4 POP POP POP POP JUMP JUMPDEST PUSH0 DUP1 REVERT JUMPDEST PUSH0 DUP1 REVERT JUMPDEST PUSH32 0x4E487B7100000000000000000000000000000000000000000000000000000000 PUSH0 MSTORE PUSH1 0x41 PUSH1 0x4 MSTORE PUSH1 0x24 PUSH0 REVERT JUMPDEST PUSH2 0x48D DUP3 PUSH2 0x3BC JUMP JUMPDEST DUP2 ADD DUP2 DUP2 LT PUSH8 0xFFFFFFFFFFFFFFFF DUP3 GT OR ISZERO PUSH2 0x4AC JUMPI PUSH2 0x4AB PUSH2 0x457 JUMP JUMPDEST JUMPDEST DUP1 PUSH1 0x40 MSTORE POP POP POP JUMP JUMPDEST PUSH0 PUSH2 0x4BE PUSH2 0x2A9 JUMP JUMPDEST SWAP1 POP PUSH2 0x4CA DUP3 DUP3 PUSH2 0x484 JUMP JUMPDEST SWAP2 SWAP1 POP JUMP JUMPDEST PUSH0 PUSH8 0xFFFFFFFFFFFFFFFF DUP3 GT ISZERO PUSH2 0x4E9 JUMPI PUSH2 0x4E8 PUSH2 0x457 JUMP JUMPDEST JUMPDEST PUSH2 0x4F2 DUP3 PUSH2 0x3BC JUMP JUMPDEST SWAP1 POP PUSH1 0x20 DUP2 ADD SWAP1 POP SWAP2 SWAP1 POP JUMP JUMPDEST DUP3 DUP2 DUP4 CALLDATACOPY PUSH0 DUP4 DUP4 ADD MSTORE POP POP POP JUMP JUMPDEST PUSH0 PUSH2 0x51F PUSH2 0x51A DUP5 PUSH2 0x4CF JUMP JUMPDEST PUSH2 0x4B5 JUMP JUMPDEST SWAP1 POP DUP3 DUP2 MSTORE PUSH1 0x20 DUP2 ADD DUP5 DUP5 DUP5 ADD GT ISZERO PUSH2 0x53B JUMPI PUSH2 0x53A PUSH2 0x453 JUMP JUMPDEST JUMPDEST PUSH2 0x546 DUP5 DUP3 DUP6 PUSH2 0x4FF JUMP JUMPDEST POP SWAP4 SWAP3 POP POP POP JUMP JUMPDEST PUSH0 DUP3 PUSH1 0x1F DUP4 ADD SLT PUSH2 0x562 JUMPI PUSH2 0x561 PUSH2 0x44F JUMP JUMPDEST JUMPDEST DUP2 CALLDATALOAD PUSH2 0x572 DUP5 DUP3 PUSH1 0x20 DUP7 ADD PUSH2 0x50D JUMP JUMPDEST SWAP2 POP POP SWAP3 SWAP2 POP POP JUMP JUMPDEST PUSH0 DUP1 PUSH1 0x40 DUP4 DUP6 SUB SLT ISZERO PUSH2 0x591 JUMPI PUSH2 0x590 PUSH2 0x2B2 JUMP JUMPDEST JUMPDEST PUSH0 DUP4 ADD CALLDATALOAD PUSH8 0xFFFFFFFFFFFFFFFF DUP2 GT ISZERO PUSH2 0x5AE JUMPI PUSH2 0x5AD PUSH2 0x2B6 JUMP JUMPDEST JUMPDEST PUSH2 0x5BA DUP6 DUP3 DUP7 ADD PUSH2 0x54E JUMP JUMPDEST SWAP3 POP POP PUSH1 0x20 PUSH2 0x5CB DUP6 DUP3 DUP7 ADD PUSH2 0x333 JUMP JUMPDEST SWAP2 POP POP SWAP3 POP SWAP3 SWAP1 POP JUMP JUMPDEST PUSH32 0x4E487B7100000000000000000000000000000000000000000000000000000000 PUSH0 MSTORE PUSH1 0x22 PUSH1 0x4 MSTORE PUSH1 0x24 PUSH0 REVERT JUMPDEST PUSH0 PUSH1 0x2 DUP3 DIV SWAP1 POP PUSH1 0x1 DUP3 AND DUP1 PUSH2 0x619 JUMPI PUSH1 0x7F DUP3 AND SWAP2 POP JUMPDEST PUSH1 0x20 DUP3 LT DUP2 SUB PUSH2 0x62C JUMPI PUSH2 0x62B PUSH2 0x5D5 JUMP JUMPDEST JUMPDEST POP SWAP2 SWAP1 POP JUMP JUMPDEST PUSH32 0x4E487B7100000000000000000000000000000000000000000000000000000000 PUSH0 MSTORE PUSH1 0x32 PUSH1 0x4 MSTORE PUSH1 0x24 PUSH0 REVERT JUMPDEST PUSH0 DUP2 SWAP1 POP DUP2 PUSH0 MSTORE PUSH1 0x20 PUSH0 KECCAK256 SWAP1 POP SWAP2 SWAP1 POP JUMP JUMPDEST PUSH0 PUSH1 0x20 PUSH1 0x1F DUP4 ADD DIV SWAP1 POP SWAP2 SWAP1 POP JUMP JUMPDEST PUSH0 DUP3 DUP3 SHL SWAP1 POP SWAP3 SWAP2 POP POP JUMP JUMPDEST PUSH0 PUSH1 0x8 DUP4 MUL PUSH2 0x6BB PUSH32 0xFFFFFFFFFFFFFFFFFFFFFFFFFFFFFFFFFFFFFFFFFFFFFFFFFFFFFFFFFFFFFFFF DUP3 PUSH2 0x680 JUMP JUMPDEST PUSH2 0x6C5 DUP7 DUP4 PUSH2 0x680 JUMP JUMPDEST SWAP6 POP DUP1 NOT DUP5 AND SWAP4 POP DUP1 DUP7 AND DUP5 OR SWAP3 POP POP POP SWAP4 SWAP3 POP POP POP JUMP JUMPDEST PUSH0 DUP2 SWAP1 POP SWAP2 SWAP1 POP JUMP JUMPDEST PUSH0 PUSH2 0x700 PUSH2 0x6FB PUSH2 0x6F6 DUP5 PUSH2 0x314 JUMP JUMPDEST PUSH2 0x6DD JUMP JUMPDEST PUSH2 0x314 JUMP JUMPDEST SWAP1 POP SWAP2 SWAP1 POP JUMP JUMPDEST PUSH0 DUP2 SWAP1 POP SWAP2 SWAP1 POP JUMP JUMPDEST PUSH2 0x719 DUP4 PUSH2 0x6E6 JUMP JUMPDEST PUSH2 0x72D PUSH2 0x725 DUP3 PUSH2 0x707 JUMP JUMPDEST DUP5 DUP5 SLOAD PUSH2 0x68C JUMP JUMPDEST DUP3 SSTORE POP POP POP POP JUMP JUMPDEST PUSH0 SWAP1 JUMP JUMPDEST PUSH2 0x741 PUSH2 0x735 JUMP JUMPDEST PUSH2 0x74C DUP2 DUP5 DUP5 PUSH2 0x710 JUMP JUMPDEST POP POP POP JUMP JUMPDEST JUMPDEST DUP2 DUP2 LT ISZERO PUSH2 0x76F JUMPI PUSH2 0x764 PUSH0 DUP3 PUSH2 0x739 JUMP JUMPDEST PUSH1 0x1 DUP2 ADD SWAP1 POP PUSH2 0x752 JUMP JUMPDEST POP POP JUMP JUMPDEST PUSH1 0x1F DUP3 GT ISZERO PUSH2 0x7B4 JUMPI PUSH2 0x785 DUP2 PUSH2 0x65F JUMP JUMPDEST PUSH2 0x78E DUP5 PUSH2 0x671 JUMP JUMPDEST DUP2 ADD PUSH1 0x20 DUP6 LT ISZERO PUSH2 0x79D JUMPI DUP2 SWAP1 POP JUMPDEST PUSH2 0x7B1 PUSH2 0x7A9 DUP6 PUSH2 0x671 JUMP JUMPDEST DUP4 ADD DUP3 PUSH2 0x751 JUMP JUMPDEST POP POP JUMPDEST POP POP POP JUMP JUMPDEST PUSH0 DUP3 DUP3 SHR SWAP1 POP SWAP3 SWAP2 POP POP JUMP JUMPDEST PUSH0 PUSH2 0x7D4 PUSH0 NOT DUP5 PUSH1 0x8 MUL PUSH2 0x7B9 JUMP JUMPDEST NOT DUP1 DUP4 AND SWAP2 POP POP SWAP3 SWAP2 POP POP JUMP JUMPDEST PUSH0 PUSH2 0x7EC DUP4 DUP4 PUSH2 0x7C5 JUMP JUMPDEST SWAP2 POP DUP3 PUSH1 0x2 MUL DUP3 OR SWAP1 POP SWAP3 SWAP2 POP POP JUMP JUMPDEST PUSH2 0x805 DUP3 PUSH2 0x394 JUMP JUMPDEST PUSH8 0xFFFFFFFFFFFFFFFF DUP2 GT ISZERO PUSH2 0x81E JUMPI PUSH2 0x81D PUSH2 0x457 JUMP JUMPDEST JUMPDEST PUSH2 0x828 DUP3 SLOAD PUSH2 0x602 JUMP JUMPDEST PUSH2 0x833 DUP3 DUP3 DUP6 PUSH2 0x773 JUMP JUMPDEST PUSH0 PUSH1 0x20 SWAP1 POP PUSH1 0x1F DUP4 GT PUSH1 0x1 DUP2 EQ PUSH2 0x864 JUMPI PUSH0 DUP5 ISZERO PUSH2 0x852 JUMPI DUP3 DUP8 ADD MLOAD SWAP1 POP JUMPDEST PUSH2 0x85C DUP6 DUP3 PUSH2 0x7E1 JUMP JUMPDEST DUP7 SSTORE POP PUSH2 0x8C3 JUMP JUMPDEST PUSH1 0x1F NOT DUP5 AND PUSH2 0x872 DUP7 PUSH2 0x65F JUMP JUMPDEST PUSH0 JUMPDEST DUP3 DUP2 LT ISZERO PUSH2 0x899 JUMPI DUP5 DUP10 ADD MLOAD DUP3 SSTORE PUSH1 0x1 DUP3 ADD SWAP2 POP PUSH1 0x20 DUP6 ADD SWAP5 POP PUSH1 0x20 DUP2 ADD SWAP1 POP PUSH2 0x874 JUMP JUMPDEST DUP7 DUP4 LT ISZERO PUSH2 0x8B6 JUMPI DUP5 DUP10 ADD MLOAD PUSH2 0x8B2 PUSH1 0x1F DUP10 AND DUP3 PUSH2 0x7C5 JUMP JUMPDEST DUP4 SSTORE POP JUMPDEST PUSH1 0x1 PUSH1 0x2 DUP9 MUL ADD DUP9 SSTORE POP POP POP JUMPDEST POP POP POP POP POP POP JUMP INVALID LOG2 PUSH5 0x6970667358 0x22 SLT KECCAK256 SWAP6 DUP9 0xA7 DUP11 MSTORE8 PUSH6 0xD1E316559909 0xCB PUSH3 0xFFD8AE 0xD6 EQ PUSH23 0xC3CD3438C1D713C77291A91F64736F6C634300081A0033 "
		},
		"gasEstimates": {
			"creation": {
				"codeDepositCost": "461000",
				"executionCost": "497",
				"totalCost": "461497"
			},
			"external": {
				"conv()": "219",
				"creatTweet(string,uint256)": "infinite",
				"tweets(address,uint256)": "infinite"
			}
		},
		"methodIdentifiers": {
			"conv()": "08b36870",
			"creatTweet(string,uint256)": "83c3ddc8",
			"tweets(address,uint256)": "05a1b4a9"
		}
	},
	"abi": [
		{
			"inputs": [],
			"name": "conv",
			"outputs": [],
			"stateMutability": "pure",
			"type": "function"
		},
		{
			"inputs": [
				{
					"internalType": "string",
					"name": "_content",
					"type": "string"
				},
				{
					"internalType": "uint256",
					"name": "index",
					"type": "uint256"
				}
			],
			"name": "creatTweet",
			"outputs": [],
			"stateMutability": "nonpayable",
			"type": "function"
		},
		{
			"inputs": [
				{
					"internalType": "address",
					"name": "",
					"type": "address"
				},
				{
					"internalType": "uint256",
					"name": "",
					"type": "uint256"
				}
			],
			"name": "tweets",
			"outputs": [
				{
					"internalType": "address",
					"name": "user",
					"type": "address"
				},
				{
					"internalType": "string",
					"name": "content",
					"type": "string"
				},
				{
					"internalType": "uint256",
					"name": "timestamp",
					"type": "uint256"
				}
			],
			"stateMutability": "view",
			"type": "function"
		}
	]
}