{
	"data": {
		"bytecode": {
			"linkReferences": {},
			"object": "60806040526040518060600160405280600560ff168152602001600a60ff168152602001600f60ff16815250600390600361003b9291906100d5565b50348015610047575f80fd5b5060015f806003811061005d5761005c610135565b5b018190555060025f60016003811061007857610077610135565b5b018190555060035f60026003811061009357610092610135565b5b01819055506040518060600160405280600260ff168152602001600460ff168152602001600660ff1681525060069060036100cf9291906100d5565b50610162565b8260038101928215610109579160200282015b82811115610108578251829060ff169055916020019190600101906100e8565b5b509050610116919061011a565b5090565b5b80821115610131575f815f90555060010161011b565b5090565b7f4e487b71000000000000000000000000000000000000000000000000000000005f52603260045260245ffd5b61031f8061016f5f395ff3fe608060405234801561000f575f80fd5b506004361061004a575f3560e01c80630936465a1461004e578063aab915401461007e578063c48eb68c146100ae578063d39fa233146100e0575b5f80fd5b610068600480360381019061006391906101e4565b610110565b604051610075919061021e565b60405180910390f35b610098600480360381019061009391906101e4565b610129565b6040516100a5919061021e565b60405180910390f35b6100c860048036038101906100c39190610237565b610142565b6040516100d793929190610287565b60405180910390f35b6100fa60048036038101906100f591906101e4565b610195565b604051610107919061021e565b60405180910390f35b6006816003811061011f575f80fd5b015f915090505481565b60038160038110610138575f80fd5b015f915090505481565b5f805f808660038110610158576101576102bc565b5b01546003866003811061016e5761016d6102bc565b5b015460068660038110610184576101836102bc565b5b015492509250925093509350939050565b5f81600381106101a3575f80fd5b015f915090505481565b5f80fd5b5f819050919050565b6101c3816101b1565b81146101cd575f80fd5b50565b5f813590506101de816101ba565b92915050565b5f602082840312156101f9576101f86101ad565b5b5f610206848285016101d0565b91505092915050565b610218816101b1565b82525050565b5f6020820190506102315f83018461020f565b92915050565b5f805f6060848603121561024e5761024d6101ad565b5b5f61025b868287016101d0565b935050602061026c868287016101d0565b925050604061027d868287016101d0565b9150509250925092565b5f60608201905061029a5f83018661020f565b6102a7602083018561020f565b6102b4604083018461020f565b949350505050565b7f4e487b71000000000000000000000000000000000000000000000000000000005f52603260045260245ffdfea2646970667358221220b7d28d82e846b95eec703125bca87698027f0beecbe8255779b8569233999f6764736f6c634300081a0033",
			"opcodes": "PUSH1 0x80 PUSH1 0x40 MSTORE PUSH1 0x40 MLOAD DUP1 PUSH1 0x60 ADD PUSH1 0x40 MSTORE DUP1 PUSH1 0x5 PUSH1 0xFF AND DUP2 MSTORE PUSH1 0x20 ADD PUSH1 0xA PUSH1 0xFF AND DUP2 MSTORE PUSH1 0x20 ADD PUSH1 0xF PUSH1 0xFF AND DUP2 MSTORE POP PUSH1 0x3 SWAP1 PUSH1 0x3 PUSH2 0x3B SWAP3 SWAP2 SWAP1 PUSH2 0xD5 JUMP JUMPDEST POP CALLVALUE DUP1 ISZERO PUSH2 0x47 JUMPI PUSH0 DUP1 REVERT JUMPDEST POP PUSH1 0x1 PUSH0 DUP1 PUSH1 0x3 DUP2 LT PUSH2 0x5D JUMPI PUSH2 0x5C PUSH2 0x135 JUMP JUMPDEST JUMPDEST ADD DUP2 SWAP1 SSTORE POP PUSH1 0x2 PUSH0 PUSH1 0x1 PUSH1 0x3 DUP2 LT PUSH2 0x78 JUMPI PUSH2 0x77 PUSH2 0x135 JUMP JUMPDEST JUMPDEST ADD DUP2 SWAP1 SSTORE POP PUSH1 0x3 PUSH0 PUSH1 0x2 PUSH1 0x3 DUP2 LT PUSH2 0x93 JUMPI PUSH2 0x92 PUSH2 0x135 JUMP JUMPDEST JUMPDEST ADD DUP2 SWAP1 SSTORE POP PUSH1 0x40 MLOAD DUP1 PUSH1 0x60 ADD PUSH1 0x40 MSTORE DUP1 PUSH1 0x2 PUSH1 0xFF AND DUP2 MSTORE PUSH1 0x20 ADD PUSH1 0x4 PUSH1 0xFF AND DUP2 MSTORE PUSH1 0x20 ADD PUSH1 0x6 PUSH1 0xFF AND DUP2 MSTORE POP PUSH1 0x6 SWAP1 PUSH1 0x3 PUSH2 0xCF SWAP3 SWAP2 SWAP1 PUSH2 0xD5 JUMP JUMPDEST POP PUSH2 0x162 JUMP JUMPDEST DUP3 PUSH1 0x3 DUP2 ADD SWAP3 DUP3 ISZERO PUSH2 0x109 JUMPI SWAP2 PUSH1 0x20 MUL DUP3 ADD JUMPDEST DUP3 DUP2 GT ISZERO PUSH2 0x108 JUMPI DUP3 MLOAD DUP3 SWAP1 PUSH1 0xFF AND SWAP1 SSTORE SWAP2 PUSH1 0x20 ADD SWAP2 SWAP1 PUSH1 0x1 ADD SWAP1 PUSH2 0xE8 JUMP JUMPDEST JUMPDEST POP SWAP1 POP PUSH2 0x116 SWAP2 SWAP1 PUSH2 0x11A JUMP JUMPDEST POP SWAP1 JUMP JUMPDEST JUMPDEST DUP1 DUP3 GT ISZERO PUSH2 0x131 JUMPI PUSH0 DUP2 PUSH0 SWAP1 SSTORE POP PUSH1 0x1 ADD PUSH2 0x11B JUMP JUMPDEST POP SWAP1 JUMP JUMPDEST PUSH32 0x4E487B7100000000000000000000000000000000000000000000000000000000 PUSH0 MSTORE PUSH1 0x32 PUSH1 0x4 MSTORE PUSH1 0x24 PUSH0 REVERT JUMPDEST PUSH2 0x31F DUP1 PUSH2 0x16F PUSH0 CODECOPY PUSH0 RETURN INVALID PUSH1 0x80 PUSH1 0x40 MSTORE CALLVALUE DUP1 ISZERO PUSH2 0xF JUMPI PUSH0 DUP1 REVERT JUMPDEST POP PUSH1 0x4 CALLDATASIZE LT PUSH2 0x4A JUMPI PUSH0 CALLDATALOAD PUSH1 0xE0 SHR DUP1 PUSH4 0x936465A EQ PUSH2 0x4E JUMPI DUP1 PUSH4 0xAAB91540 EQ PUSH2 0x7E JUMPI DUP1 PUSH4 0xC48EB68C EQ PUSH2 0xAE JUMPI DUP1 PUSH4 0xD39FA233 EQ PUSH2 0xE0 JUMPI JUMPDEST PUSH0 DUP1 REVERT JUMPDEST PUSH2 0x68 PUSH1 0x4 DUP1 CALLDATASIZE SUB DUP2 ADD SWAP1 PUSH2 0x63 SWAP2 SWAP1 PUSH2 0x1E4 JUMP JUMPDEST PUSH2 0x110 JUMP JUMPDEST PUSH1 0x40 MLOAD PUSH2 0x75 SWAP2 SWAP1 PUSH2 0x21E JUMP JUMPDEST PUSH1 0x40 MLOAD DUP1 SWAP2 SUB SWAP1 RETURN JUMPDEST PUSH2 0x98 PUSH1 0x4 DUP1 CALLDATASIZE SUB DUP2 ADD SWAP1 PUSH2 0x93 SWAP2 SWAP1 PUSH2 0x1E4 JUMP JUMPDEST PUSH2 0x129 JUMP JUMPDEST PUSH1 0x40 MLOAD PUSH2 0xA5 SWAP2 SWAP1 PUSH2 0x21E JUMP JUMPDEST PUSH1 0x40 MLOAD DUP1 SWAP2 SUB SWAP1 RETURN JUMPDEST PUSH2 0xC8 PUSH1 0x4 DUP1 CALLDATASIZE SUB DUP2 ADD SWAP1 PUSH2 0xC3 SWAP2 SWAP1 PUSH2 0x237 JUMP JUMPDEST PUSH2 0x142 JUMP JUMPDEST PUSH1 0x40 MLOAD PUSH2 0xD7 SWAP4 SWAP3 SWAP2 SWAP1 PUSH2 0x287 JUMP JUMPDEST PUSH1 0x40 MLOAD DUP1 SWAP2 SUB SWAP1 RETURN JUMPDEST PUSH2 0xFA PUSH1 0x4 DUP1 CALLDATASIZE SUB DUP2 ADD SWAP1 PUSH2 0xF5 SWAP2 SWAP1 PUSH2 0x1E4 JUMP JUMPDEST PUSH2 0x195 JUMP JUMPDEST PUSH1 0x40 MLOAD PUSH2 0x107 SWAP2 SWAP1 PUSH2 0x21E JUMP JUMPDEST PUSH1 0x40 MLOAD DUP1 SWAP2 SUB SWAP1 RETURN JUMPDEST PUSH1 0x6 DUP2 PUSH1 0x3 DUP2 LT PUSH2 0x11F JUMPI PUSH0 DUP1 REVERT JUMPDEST ADD PUSH0 SWAP2 POP SWAP1 POP SLOAD DUP2 JUMP JUMPDEST PUSH1 0x3 DUP2 PUSH1 0x3 DUP2 LT PUSH2 0x138 JUMPI PUSH0 DUP1 REVERT JUMPDEST ADD PUSH0 SWAP2 POP SWAP1 POP SLOAD DUP2 JUMP JUMPDEST PUSH0 DUP1 PUSH0 DUP1 DUP7 PUSH1 0x3 DUP2 LT PUSH2 0x158 JUMPI PUSH2 0x157 PUSH2 0x2BC JUMP JUMPDEST JUMPDEST ADD SLOAD PUSH1 0x3 DUP7 PUSH1 0x3 DUP2 LT PUSH2 0x16E JUMPI PUSH2 0x16D PUSH2 0x2BC JUMP JUMPDEST JUMPDEST ADD SLOAD PUSH1 0x6 DUP7 PUSH1 0x3 DUP2 LT PUSH2 0x184 JUMPI PUSH2 0x183 PUSH2 0x2BC JUMP JUMPDEST JUMPDEST ADD SLOAD SWAP3 POP SWAP3 POP SWAP3 POP SWAP4 POP SWAP4 POP SWAP4 SWAP1 POP JUMP JUMPDEST PUSH0 DUP2 PUSH1 0x3 DUP2 LT PUSH2 0x1A3 JUMPI PUSH0 DUP1 REVERT JUMPDEST ADD PUSH0 SWAP2 POP SWAP1 POP SLOAD DUP2 JUMP JUMPDEST PUSH0 DUP1 REVERT JUMPDEST PUSH0 DUP2 SWAP1 POP SWAP2 SWAP1 POP JUMP JUMPDEST PUSH2 0x1C3 DUP2 PUSH2 0x1B1 JUMP JUMPDEST DUP2 EQ PUSH2 0x1CD JUMPI PUSH0 DUP1 REVERT JUMPDEST POP JUMP JUMPDEST PUSH0 DUP2 CALLDATALOAD SWAP1 POP PUSH2 0x1DE DUP2 PUSH2 0x1BA JUMP JUMPDEST SWAP3 SWAP2 POP POP JUMP JUMPDEST PUSH0 PUSH1 0x20 DUP3 DUP5 SUB SLT ISZERO PUSH2 0x1F9 JUMPI PUSH2 0x1F8 PUSH2 0x1AD JUMP JUMPDEST JUMPDEST PUSH0 PUSH2 0x206 DUP5 DUP3 DUP6 ADD PUSH2 0x1D0 JUMP JUMPDEST SWAP2 POP POP SWAP3 SWAP2 POP POP JUMP JUMPDEST PUSH2 0x218 DUP2 PUSH2 0x1B1 JUMP JUMPDEST DUP3 MSTORE POP POP JUMP JUMPDEST PUSH0 PUSH1 0x20 DUP3 ADD SWAP1 POP PUSH2 0x231 PUSH0 DUP4 ADD DUP5 PUSH2 0x20F JUMP JUMPDEST SWAP3 SWAP2 POP POP JUMP JUMPDEST PUSH0 DUP1 PUSH0 PUSH1 0x60 DUP5 DUP7 SUB SLT ISZERO PUSH2 0x24E JUMPI PUSH2 0x24D PUSH2 0x1AD JUMP JUMPDEST JUMPDEST PUSH0 PUSH2 0x25B DUP7 DUP3 DUP8 ADD PUSH2 0x1D0 JUMP JUMPDEST SWAP4 POP POP PUSH1 0x20 PUSH2 0x26C DUP7 DUP3 DUP8 ADD PUSH2 0x1D0 JUMP JUMPDEST SWAP3 POP POP PUSH1 0x40 PUSH2 0x27D DUP7 DUP3 DUP8 ADD PUSH2 0x1D0 JUMP JUMPDEST SWAP2 POP POP SWAP3 POP SWAP3 POP SWAP3 JUMP JUMPDEST PUSH0 PUSH1 0x60 DUP3 ADD SWAP1 POP PUSH2 0x29A PUSH0 DUP4 ADD DUP7 PUSH2 0x20F JUMP JUMPDEST PUSH2 0x2A7 PUSH1 0x20 DUP4 ADD DUP6 PUSH2 0x20F JUMP JUMPDEST PUSH2 0x2B4 PUSH1 0x40 DUP4 ADD DUP5 PUSH2 0x20F JUMP JUMPDEST SWAP5 SWAP4 POP POP POP POP JUMP JUMPDEST PUSH32 0x4E487B7100000000000000000000000000000000000000000000000000000000 PUSH0 MSTORE PUSH1 0x32 PUSH1 0x4 MSTORE PUSH1 0x24 PUSH0 REVERT INVALID LOG2 PUSH5 0x6970667358 0x22 SLT KECCAK256 0xB7 0xD2 DUP14 DUP3 0xE8 CHAINID 0xB9 MCOPY 0xEC PUSH17 0x3125BCA87698027F0BEECBE8255779B856 SWAP3 CALLER SWAP10 SWAP16 PUSH8 0x64736F6C63430008 BYTE STOP CALLER "
		},
		"gasEstimates": {
			"creation": {
				"codeDepositCost": "159800",
				"executionCost": "infinite",
				"totalCost": "infinite"
			},
			"external": {
				"evenNumbers(uint256)": "infinite",
				"getElement(uint256,uint256,uint256)": "infinite",
				"numbers(uint256)": "infinite",
				"oddNumbers(uint256)": "infinite"
			}
		},
		"methodIdentifiers": {
			"evenNumbers(uint256)": "0936465a",
			"getElement(uint256,uint256,uint256)": "c48eb68c",
			"numbers(uint256)": "d39fa233",
			"oddNumbers(uint256)": "aab91540"
		}
	},
	"abi": [
		{
			"inputs": [],
			"stateMutability": "nonpayable",
			"type": "constructor"
		},
		{
			"inputs": [
				{
					"internalType": "uint256",
					"name": "",
					"type": "uint256"
				}
			],
			"name": "evenNumbers",
			"outputs": [
				{
					"internalType": "uint256",
					"name": "",
					"type": "uint256"
				}
			],
			"stateMutability": "view",
			"type": "function"
		},
		{
			"inputs": [
				{
					"internalType": "uint256",
					"name": "index1",
					"type": "uint256"
				},
				{
					"internalType": "uint256",
					"name": "index2",
					"type": "uint256"
				},
				{
					"internalType": "uint256",
					"name": "index3",
					"type": "uint256"
				}
			],
			"name": "getElement",
			"outputs": [
				{
					"internalType": "uint256",
					"name": "",
					"type": "uint256"
				},
				{
					"internalType": "uint256",
					"name": "",
					"type": "uint256"
				},
				{
					"internalType": "uint256",
					"name": "",
					"type": "uint256"
				}
			],
			"stateMutability": "view",
			"type": "function"
		},
		{
			"inputs": [
				{
					"internalType": "uint256",
					"name": "",
					"type": "uint256"
				}
			],
			"name": "numbers",
			"outputs": [
				{
					"internalType": "uint256",
					"name": "",
					"type": "uint256"
				}
			],
			"stateMutability": "view",
			"type": "function"
		},
		{
			"inputs": [
				{
					"internalType": "uint256",
					"name": "",
					"type": "uint256"
				}
			],
			"name": "oddNumbers",
			"outputs": [
				{
					"internalType": "uint256",
					"name": "",
					"type": "uint256"
				}
			],
			"stateMutability": "view",
			"type": "function"
		}
	]
}